:100000000C942A000C9470080C94A6080C94DC083C
:100010000C9447000C9447000C9447000C94470044
:100020000C9447000C9447000C945C060C94470019
:100030000C9447000C9447000C9447000C94470024
:100040000C9447000C9447000C9447000C94470014
:100050000C94470011241FBECFE5D8E0DEBFCDBF12
:1000600010E0A0E6B0E0ECE3F3E202C005900D92F0
:10007000A038B107D9F710E0A0E8B0E001C01D92A8
:10008000AB38B107E1F70E9441110C949C110C941C
:100090000000EF92FF920F931F937B018C0120E0F1
:1000A00030E040E05FE40E94490388238CF0C801FF
:1000B000B70120E030E040E05FE40E94C1010E940F
:1000C000A9039B01AC01205030404040504806C07D
:1000D000C801B7010E94A9039B01AC01B901CA0183
:1000E0001F910F91FF90EF900895A0E0B0E0EBE733
:1000F000F0E00C946511DC012B01FA019C91923027
:1001000008F439C1EB018881823008F433C194309E
:1001100069F4843009F02FC111969C91119789815F
:10012000981709F428C1A0E6B0E025C1843009F48D
:1001300021C18230A9F4923009F01DC19A01AD01AC
:1001400088E0EA010990AE01E90109929E0181501F
:10015000C1F7E201898111969C918923818308C1AD
:10016000923009F407C112962D903C901397EB0141
:100170008A819B811496AD90BD90CD90DC901797AD
:10018000EC80FD800E811F819101281B390BB90184
:1001900037FF04C066277727621B730B6032710537
:1001A0000CF061C0121613066CF537014801062EDB
:1001B00004C096948794779467940A94D2F721E0C8
:1001C00030E040E050E004C0220F331F441F551FB1
:1001D0006A95D2F721503040404050402E213F21B7
:1001E00040235123211531054105510521F021E01E
:1001F00030E040E050E079018A01E628F72808293C
:1002000019293CC0232BD1F1260E371E350146019A
:10021000062E04C096948794779467940A94D2F734
:1002200021E030E040E050E004C0220F331F441FC3
:10023000551F6A95D2F721503040404050402A2146
:100240003B214C215D21211531054105510521F04E
:1002500021E030E040E050E059016A01A628B728CB
:10026000C828D9280BC0821593052CF01C01AA249C
:10027000BB24650103C0EE24FF24870111969C91E5
:10028000D20111968C91981709F445C0992339F041
:10029000A80197012A193B094C095D0906C0A6016E
:1002A00095012E193F09400B510B57FD08C01182D3
:1002B0003382228224833583468357831DC081E0A5
:1002C00081833382228288279927DC01821B930B4A
:1002D000A40BB50B84839583A683B7830DC0220F2F
:1002E000331F441F551F24833583468357838281E0
:1002F000938101979383828324813581468157813D
:10030000DA01C9010197A109B1098F5F9F4FAF4F72
:10031000BF4328F30BC0918333822282EA0CFB1C7B
:100320000C1D1D1DE482F5820683178383E0808304
:10033000248135814681578157FF1AC0C901AA27F8
:1003400097FDA095BA2F81709070A070B0705695EF
:10035000479537952795822B932BA42BB52B848318
:100360009583A683B7838281938101969383828349
:10037000DF0101C0D201CD01CDB7DEB7E2E10C94BF
:100380008111A0E2B0E0E7ECF1E00C947111698317
:100390007A838B839C832D833E834F835887E9E048
:1003A000EE2EF12CEC0EFD1ECE010196B7010E943F
:1003B000D2048E010F5E1F4FCE010596B8010E9438
:1003C000D2048A8991E089278A8BC701B801AE01DE
:1003D000475E5F4F0E9475000E94FD03A096E6E015
:1003E0000C948D11A0E2B0E0E8EFF1E00C947111F3
:1003F00069837A838B839C832D833E834F835887C5
:10040000F9E0EF2EF12CEC0EFD1ECE010196B701A6
:100410000E94D2048E010F5E1F4FCE010596B801D7
:100420000E94D204C701B801AE01475E5F4F0E942F
:1004300075000E94FD03A096E6E00C948D11A0E2E9
:10044000B0E0E5E2F2E00C94651169837A838B8376
:100450009C832D833E834F835887CE010196BE0136
:10046000675F7F4F0E94D204CE010596BE016F5E8A
:100470007F4F0E94D2049985923088F0898982301A
:10048000C8F0943019F4823051F404C0843029F457
:10049000923081F480E690E0C6C0923049F420E0CA
:1004A0009A858A89981321E02A87CE010996BBC0D4
:1004B000823049F420E09A858A89981321E02A8BBA
:1004C000CE014196B0C02D843E844F8458886D88FB
:1004D0007E888F88988CEE24FF248701AA24BB2471
:1004E000650140E050E060E070E0E0E0F0E0C10174
:1004F00081709070892BE9F0E60CF71C081D191D1E
:100500009A01AB012A0D3B1D4C1D5D1D80E090E062
:10051000A0E0B0E0E614F7040805190520F481E036
:1005200090E0A0E0B0E0BA01A901480F591F6A1F8E
:100530007B1FAA0CBB1CCC1CDD1C97FE08C081E0F5
:1005400090E0A0E0B0E0A82AB92ACA2ADB2A3196B6
:10055000E032F10549F0660C771C881C991C569412
:10056000479437942794C3CFFA85EA892B893C892D
:100570008B859C85280F391F2E5F3F4F17C0CA01FE
:1005800081709070892B61F016950795F794E79428
:1005900080E090E0A0E0B0E8E82AF92A0A2B1B2BC3
:1005A00076956795579547952F5F3F4F77FDE7CF36
:1005B0000CC0440F551F661F771F17FD4160EE0CDE
:1005C000FF1C001F111F21503040403090E05907A0
:1005D00090E0690790E4790760F32B8F3C8FDB0193
:1005E000CA018F779070A070B07080349105A1051A
:1005F000B10561F447FD0AC0E114F10401051105DC
:1006000029F0405C5F4F6F4F7F4F40781A8EFE1786
:1006100011F081E08A8F4D8F5E8F6F8F78A383E01A
:10062000898FCE0149960E94FD03A096E2E10C94C9
:100630008111A8E1B0E0EFE1F3E00C94711169835E
:100640007A838B839C832D833E834F83588789E0F5
:10065000E82EF12CEC0EFD1ECE010196B7010E9492
:10066000D2048E010F5E1F4FCE010596B8010E9485
:10067000D2048985823040F08989823028F0C70110
:10068000B8010E944A0501C08FEF6896E6E00C941D
:100690008D11A8E1B0E0EFE4F3E00C9471116983EF
:1006A0007A838B839C832D833E834F83588789E095
:1006B000E82EF12CEC0EFD1ECE010196B7010E9432
:1006C000D2048E010F5E1F4FCE010596B8010E9425
:1006D000D2048985823040F08989823028F0C701B0
:1006E000B8010E944A0501C08FEF6896E6E00C94BD
:1006F0008D11A8E1B0E0EFE7F3E00C94711169838C
:100700007A838B839C832D833E834F83588789E034
:10071000E82EF12CEC0EFD1ECE010196B7010E94D1
:10072000D2048E010F5E1F4FCE010596B8010E94C4
:10073000D2048985823040F08989823028F0C7014F
:10074000B8010E944A0501C081E06896E6E00C9479
:100750008D11ACE0B0E0EFEAF3E00C947511698321
:100760007A838B839C83CE010196BE016B5F7F4FA2
:100770000E94D2048D81823061F1823050F1843048
:1007800021F48E81882351F12EC02F81388537FDC9
:1007900020C06E812F3131051CF06623F9F023C093
:1007A0008EE190E0821B930B29853A854B855C8511
:1007B00004C056954795379527958A95D2F76623B5
:1007C000B1F050954095309521953F4F4F4F5F4F79
:1007D0000EC020E030E040E050E009C02FEF3FEFD6
:1007E0004FEF5FE704C020E030E040E050E8B9019F
:1007F000CA012C96E2E00C949111DF92EF92FF92E5
:100800000F931F93FC01E480F58006811781D1804E
:100810008081823048F480E090E0A0E1B0E0E82AF6
:10082000F92A0A2B1B2BA5C0843009F49FC0823003
:1008300021F4EE24FF24870105C0E114F104010531
:10084000110519F4E0E0F0E096C0628173819FEF3A
:10085000623879070CF05BC022E83FEF261B370BAC
:100860002A3131052CF020E030E040E050E02AC091
:10087000B801A701022E04C0769567955795479554
:100880000A94D2F781E090E0A0E0B0E004C0880FC5
:10089000991FAA1FBB1F2A95D2F70197A109B10979
:1008A0008E219F21A023B1230097A105B10521F03E
:1008B00081E090E0A0E0B0E09A01AB01282B392B59
:1008C0004A2B5B2BDA01C9018F779070A070B07052
:1008D00080349105A105B10539F427FF09C0205CDA
:1008E0003F4F4F4F5F4F04C0215C3F4F4F4F5F4F13
:1008F000E0E0F0E02030A0E03A07A0E04A07A0E402
:100900005A0710F0E1E0F0E079018A0127C0603871
:10091000710564F5FB01E158FF4FD801C7018F77DE
:100920009070A070B07080349105A105B10539F4C4
:10093000E7FE0DC080E490E0A0E0B0E004C08FE3EB
:1009400090E0A0E0B0E0E80EF91E0A1F1B1F17FFA1
:1009500005C016950795F794E794319687E01695AC
:100960000795F794E7948A95D1F705C0EE24FF2404
:100970008701EFEFF0E06E2F679566276795902F60
:100980009F77D794DD24D7948E2F8695492F462BB9
:10099000582F5D29B701CA011F910F91FF90EF9069
:1009A000DF900895FC01DB01408151812281622F9B
:1009B0006F7770E0221F2227221F9381892F880FD3
:1009C000822B282F30E0991F9927991F11969C930D
:1009D000119721153105A9F54115510561057105DD
:1009E00011F482E037C082E89FEF13969C938E93B8
:1009F00012979A01AB0167E0220F331F441F551F66
:100A00006A95D1F783E08C930DC0220F331F441FEA
:100A1000551F12968D919C911397019713969C9355
:100A20008E931297203080E0380780E0480780E4FA
:100A3000580758F314962D933D934D935C93179755
:100A400008952F3F310579F4411551056105710570
:100A500019F484E08C93089564FF03C081E08C93C3
:100A600012C01C9210C02F57304013963C932E9307
:100A7000129783E08C9387E0440F551F661F771F02
:100A80008A95D1F7706414964D935D936D937C9322
:100A9000179708951F93DC01FB019C91923008F495
:100AA00047C08081823008F443C0943051F41196DD
:100AB0001C91843099F58181682F70E0611B710968
:100AC0003FC0843021F0923031F48230B9F181811D
:100AD000882389F12DC011961C9111978230F1F075
:100AE00081811817D9F412962D913C911397828128
:100AF00093818217930794F028173907BCF0149656
:100B00008D919D910D90BC91A02D248135814681C0
:100B10005781281739074A075B0718F4112341F05A
:100B20000AC082179307A407B50740F4112319F0F0
:100B300061E070E005C06FEF7FEF02C060E070E041
:100B4000CB011F910895DF93CF9300D000D0CDB794
:100B5000DEB79B838A8381E089838A819B810097AA
:100B600051F1E5E4F0E08081E5E4F0E01082A5E4F5
:100B7000B0E0E5E4F0E02081EA81FB819081EA8148
:100B8000FB818281982BEA81FB818381892B822BD7
:100B90008C93A9E5B0E0E9E5F0E080818F738C9358
:100BA000A9E5B0E0E9E5F0E09081EA81FB8181818F
:100BB000892B8C9301C0198289810F900F900F901F
:100BC0000F90CF91DF910895DF93CF930F92CDB720
:100BD000DEB78983E4E4F0E0898180830F90CF91D0
:100BE000DF910895DF93CF930F92CDB7DEB789835E
:100BF000E3E4F0E0898180830F90CF91DF91089545
:100C0000DF93CF93CDB7DEB7A3E5B0E0E3E5F0E047
:100C1000808188608C93A3E5B0E0E3E5F0E080811B
:100C20008F7B8C93A9E5B0E0E9E5F0E080818260FC
:100C30008C93A3E5B0E0E3E5F0E0808181608C93E4
:100C4000A3E5B0E0E3E5F0E0808182608C93A3E56A
:100C5000B0E0E3E5F0E080818B7F8C93CF91DF9172
:100C60000895DF93CF930F92CDB7DEB78983ECE57C
:100C7000F0E0898180830F90CF91DF910895DF9319
:100C8000CF9300D00F92CDB7DEB79B838A8381E0EC
:100C900089838A819B81009739F08A819B81909317
:100CA00081008093800001C0198289810F900F908C
:100CB0000F90CF91DF9108951F920F920FB60F9270
:100CC00011242F933F934F935F936F937F938F9351
:100CD0009F93AF93BF93EF93FF93DF93CF93CDB7E2
:100CE000DEB78091800090918100009729F0E0911B
:100CF0008000F09181000995CF91DF91FF91EF91F4
:100D0000BF91AF919F918F917F916F915F914F9123
:100D10003F912F910F900FBE0F901F901895DF936A
:100D2000CF93CDB7DEB7AFE5B0E0EFE5F0E080817F
:100D300080688C93CF91DF910895DF93CF93CDB7E7
:100D4000DEB7AFE5B0E0EFE5F0E080818F778C9320
:100D5000CF91DF910895DF93CF93CDB7DEB7ABE5A9
:100D6000B0E0EBE5F0E0808180648C93A5E5B0E035
:100D7000E5E5F0E0808181608C93A5E5B0E0E5E5F4
:100D8000F0E0808182608C93CF91DF910895DF93B2
:100D9000CF93CDB7DEB72A970FB6F894DEBF0FBE5C
:100DA000CDBF9A838983E981FA818081282F30E041
:100DB0003A87298789859A858130910509F46FC022
:100DC00029853A852230310509F4CDC089859A8577
:100DD000009709F0EFC0ABE5B0E0EBE5F0E0808113
:100DE00080648C93E981FA818181282F30E03887F3
:100DF0002F838F8198858130910521F12F8138854E
:100E0000223031052CF48F819885009761F0D2C093
:100E10002F8138852230310521F18F8198858330EB
:100E2000910571F1C7C0A5E5B0E0E5E5F0E080818E
:100E300081608C93A5E5B0E0E5E5F0E0808182601B
:100E40008C93B8C0A5E5B0E0E5E5F0E08081826074
:100E50008C93A5E5B0E0E5E5F0E080818E7F8C9392
:100E6000A9C0A5E5B0E0E5E5F0E0808181608C9364
:100E7000A5E5B0E0E5E5F0E080818D7F8C939AC038
:100E8000A5E5B0E0E5E5F0E080818E7F8C93A5E5F7
:100E9000B0E0E5E5F0E080818D7F8C938BC0ABE521
:100EA000B0E0EBE5F0E0808180688C93E981FA8125
:100EB0008181282F30E03E832D838D819E8181307A
:100EC000910521F12D813E81223031052CF48D8157
:100ED0009E81009761F06EC02D813E8122303105E8
:100EE00021F18D819E818330910571F163C0A5E56B
:100EF000B0E0E5E5F0E0808184608C93A5E5B0E0AA
:100F0000E5E5F0E0808188608C9354C0A5E5B0E011
:100F1000E5E5F0E0808188608C93A5E5B0E0E5E54B
:100F2000F0E080818B7F8C9345C0A5E5B0E0E5E5DE
:100F3000F0E0808184608C93A5E5B0E0E5E5F0E029
:100F40008081877F8C9336C0A5E5B0E0E5E5F0E0D1
:100F500080818B7F8C93A5E5B0E0E5E5F0E08081B2
:100F6000877F8C9327C0ABE5B0E0EBE5F0E08081B4
:100F700080628C93E981FA818181282F30E03C8363
:100F80002B838B819C81009731F02B813C81213018
:100F9000310549F00FC0A4E5B0E0E4E5F0E0808160
:100FA00080648C9307C0A4E5B0E0E4E5F0E08081C4
:100FB0008F7B8C932A960FB6F894DEBF0FBECDBF01
:100FC000CF91DF910895DF93CF9300D00F92CDB7EB
:100FD000DEB789838981282F30E03B832A838A8189
:100FE0009B818130910589F02A813B812230310536
:100FF000A1F08A819B810097B9F4ABE5B0E0EBE505
:10100000F0E080818F7B8C930FC0ABE5B0E0EBE527
:10101000F0E080818F778C9307C0ABE5B0E0EBE523
:10102000F0E080818F7D8C930F900F900F90CF9187
:10103000DF910895DF93CF9300D00F92CDB7DEB745
:1010400089837B836A838A819B81009761F0898190
:10105000882F90E0880F991FFC01EE57FF4F8A817F
:101060009B81918380830F900F900F90CF91DF91A0
:101070000895DF93CF9300D00F92CDB7DEB7898369
:101080008981282F30E03B832A838A819B818130AC
:10109000910589F02A813B8122303105A1F08A81B6
:1010A0009B810097B9F4AAE5B0E0EAE5F0E0808121
:1010B00080648C930FC0AAE5B0E0EAE5F0E080819F
:1010C00080688C9307C0AAE5B0E0EAE5F0E0808193
:1010D00080628C930F900F900F90CF91DF910895C5
:1010E0001F920F920FB60F9211242F933F934F939D
:1010F0005F936F937F938F939F93AF93BF93EF9380
:10110000FF93DF93CF93CDB7DEB7809182009091AC
:101110008300009729F0E0918200F0918300099507
:1011200080E00E943908CF91DF91FF91EF91BF914C
:10113000AF919F918F917F916F915F914F913F916F
:101140002F910F900FBE0F901F9018951F920F9226
:101150000FB60F9211242F933F934F935F936F938A
:101160007F938F939F93AF93BF93EF93FF93DF93FF
:10117000CF93CDB7DEB78091840090918500009722
:1011800029F0E0918400F0918500099581E00E94AA
:101190003908CF91DF91FF91EF91BF91AF919F916E
:1011A0008F917F916F915F914F913F912F910F9010
:1011B0000FBE0F901F9018951F920F920FB60F92AF
:1011C00011242F933F934F935F936F937F938F934C
:1011D0009F93AF93BF93EF93FF93DF93CF93CDB7DD
:1011E000DEB78091860090918700009729F0E0910A
:1011F0008600F0918700099582E00E943908CF911E
:10120000DF91FF91EF91BF91AF919F918F917F916E
:101210006F915F914F913F912F910F900FBE0F9063
:101220001F901895DF93CF93CDB7DEB728970FB6F1
:10123000F894DEBF0FBECDBF8A836B834C8385E0FD
:1012400089838A81843008F0F5C08B81883008F06A
:10125000EEC08C81813009F06FC08A81282F30E088
:1012600038872F838F8198858130910549F12F81AF
:101270003885223031052CF48F819885009761F0F4
:10128000DAC02F8138852230310571F18F81988540
:1012900083309105E9F1CFC0ABE3B0E0EBE3F0E0E0
:1012A0008081482F8B81282F30E081E090E0022E52
:1012B00002C0880F991F0A94E2F7842B8C93BBC05D
:1012C000A8E3B0E0E8E3F0E08081482F8B81282F8D
:1012D00030E081E090E0022E02C0880F991F0A944E
:1012E000E2F7842B8C93A7C0A5E3B0E0E5E3F0E040
:1012F0008081482F8B81282F30E081E090E0022E02
:1013000002C0880F991F0A94E2F7842B8C9393C034
:10131000A2E3B0E0E2E3F0E08081482F8B81282F48
:1013200030E081E090E0022E02C0880F991F0A94FD
:10133000E2F7842B8C937FC08C81882309F074C0E2
:101340008A81282F30E03E832D838D819E818130DC
:10135000910559F12D813E81223031052CF48D818A
:101360009E81009769F067C02D813E812230310552
:1013700089F18D819E818330910509F440C05BC065
:10138000ABE3B0E0EBE3F0E08081482F8B81282FC6
:1013900030E081E090E0022E02C0880F991F0A948D
:1013A000E2F7809584238C9346C0A8E3B0E0E8E39D
:1013B000F0E08081482F8B81282F30E081E090E0A1
:1013C000022E02C0880F991F0A94E2F780958423A9
:1013D0008C9331C0A5E3B0E0E5E3F0E08081482FD5
:1013E0008B81282F30E081E090E0022E02C0880F30
:1013F000991F0A94E2F7809584238C931CC0A2E382
:10140000B0E0E2E3F0E08081482F8B81282F30E0CC
:1014100081E090E0022E02C0880F991F0A94E2F743
:10142000809584238C9307C083E0898304C081E086
:10143000898301C01982898128960FB6F894DEBF8E
:101440000FBECDBFCF91DF910895DF93CF93CDB77E
:10145000DEB727970FB6F894DEBF0FBECDBF8A83E5
:101460006B835D834C8385E089838C819D810097AC
:1014700009F47EC08A81843008F078C08B8188307E
:1014800008F071C08A81282F30E03F832E834E817F
:101490005F814130510559F18E819F8182309105E4
:1014A00034F42E813F812115310569F063C04E81EE
:1014B0005F814230510579F18E819F8183309105A2
:1014C00009F43DC057C0E9E3F0E08081282F30E007
:1014D0008B81882F90E0A90102C0559547958A9588
:1014E000E2F7CA018170EC81FD81808343C0E6E3AD
:1014F000F0E08081282F30E08B81882F90E0A901D7
:1015000002C0559547958A95E2F7CA018170EC8132
:10151000FD8180832FC0E3E3F0E08081282F30E05D
:101520008B81882F90E0A90102C0559547958A9537
:10153000E2F7CA018170EC81FD8180831BC0E0E38A
:10154000F0E08081282F30E08B81882F90E0A90186
:1015500002C0559547958A95E2F7CA018170EC81E2
:10156000FD81808307C081E0898304C0198202C0A5
:1015700084E08983898127960FB6F894DEBF0FBE79
:10158000CDBFCF91DF910895DF93CF93CDB7DEB775
:1015900028970FB6F894DEBF0FBECDBF8A836B834A
:1015A0004C8385E089838A81843008F0F5C08B8183
:1015B000883008F0EEC08C81813009F06FC08A81DC
:1015C000282F30E038872F838F81988581309105CF
:1015D00049F12F813885223031052CF48F8198858F
:1015E000009761F0DAC02F8138852230310571F122
:1015F0008F81988583309105E9F1CFC0AAE3B0E0EF
:10160000EAE3F0E08081482F8B81282F30E081E0F1
:1016100090E0022E02C0880F991F0A94E2F7842BF3
:101620008C93BBC0A7E3B0E0E7E3F0E08081482FF4
:101630008B81282F30E081E090E0022E02C0880FDD
:10164000991F0A94E2F7842B8C93A7C0A4E3B0E01F
:10165000E4E3F0E08081482F8B81282F30E081E0A7
:1016600090E0022E02C0880F991F0A94E2F7842BA3
:101670008C9393C0A1E3B0E0E1E3F0E08081482FD8
:101680008B81282F30E081E090E0022E02C0880F8D
:10169000991F0A94E2F7842B8C937FC08C81882356
:1016A00009F074C08A81282F30E03E832D838D811C
:1016B0009E818130910559F12D813E812230310585
:1016C0002CF48D819E81009769F067C02D813E8149
:1016D0002230310589F18D819E818330910509F495
:1016E00040C05BC0AAE3B0E0EAE3F0E08081482FAD
:1016F0008B81282F30E081E090E0022E02C0880F1D
:10170000991F0A94E2F7809584238C9346C0A7E33F
:10171000B0E0E7E3F0E08081482F8B81282F30E0B4
:1017200081E090E0022E02C0880F991F0A94E2F730
:10173000809584238C9331C0A4E3B0E0E4E3F0E02F
:101740008081482F8B81282F30E081E090E0022EAD
:1017500002C0880F991F0A94E2F7809584238C9326
:101760001CC0A1E3B0E0E1E3F0E08081482F8B8171
:10177000282F30E081E090E0022E02C0880F991FF0
:101780000A94E2F7809584238C9307C082E08983D2
:1017900004C081E0898301C01982898128960FB62F
:1017A000F894DEBF0FBECDBFCF91DF910895DF93D8
:1017B000CF93CDB7DEB72A970FB6F894DEBF0FBE32
:1017C000CDBF6F83788789879A876F817885898570
:1017D0009A8520E030E04AEF54E40E941F02DC01C9
:1017E000CB0189839A83AB83BC8369817A818B81A6
:1017F0009C8120E030E040E85FE30E947903882389
:101800002CF481E090E09E838D8339C069817A81D8
:101810008B819C8120E03FEF4FE757E40E94190342
:1018200018161CF56F81788589859A8520E030E04F
:1018300040E251E40E941F02DC01CB01BC01CD015A
:101840000E944900DC01CB019E838D8309C088EC96
:1018500090E00E944C0C8D819E8101979E838D8328
:101860008D819E81009799F70EC069817A818B8165
:101870009C810E944900DC01CB019E838D838D8178
:101880009E810E944C0C2A960FB6F894DEBF0FBEC4
:10189000CDBFCF91DF910895DF93CF9300D0CDB727
:1018A000DEB79A83898389819A810197F1F79A83B8
:1018B00089830F900F90CF91DF910895DF93CF939D
:1018C00000D0CDB7DEB785E08A831982198221C0A6
:1018D0008981282F30E0C901880F991F820F931F3B
:1018E000FC01E859FF4F40818981282F30E0C90170
:1018F000880F991F820F931FFC01E759FF4F9081BA
:10190000842F692F41E00E94C40A8A8389818F5FF6
:10191000898389818630E0F28A810F900F90CF9180
:10192000DF910895DF93CF9300D0CDB7DEB78A83E0
:1019300085E089838A81863008F07AC08A81282FE1
:1019400030E0C901880F991F820F931FFC01E659EF
:10195000FF4F8081813079F08A81282F30E0C901E2
:10196000880F991F820F931FFC01E659FF4F80815A
:10197000882309F05AC08A81282F30E0C901880FD6
:10198000991F820F931FFC01E659FF4F8081813020
:10199000F9F48A81282F30E0C901880F991F820F3E
:1019A000931FFC01E859FF4F40818A81282F30E0C6
:1019B000C901880F991F820F931FFC01E759FF4F40
:1019C0009081842F692F41E00E941209898332C0DF
:1019D0008A81282F30E0C901880F991F820F931F39
:1019E000FC01E659FF4F8081882321F58A81282F49
:1019F00030E0C901880F991F820F931FFC01E8593D
:101A0000FF4F40818A81282F30E0C901880F991F3C
:101A1000820F931FFC01E759FF4F9081842F692F9C
:101A200040E00E941209898305C083E0898302C0D7
:101A300082E0898389810F900F90CF91DF91089583
:101A4000DF93CF9300D0CDB7DEB78A8385E089835B
:101A50008A81863008F07AC08A81282F30E0C90157
:101A6000880F991F820F931FFC01E659FF4F808159
:101A7000813079F08A81282F30E0C901880F991FC1
:101A8000820F931FFC01E659FF4F8081882309F0E4
:101A90005AC08A81282F30E0C901880F991F820F10
:101AA000931FFC01E659FF4F80818130F9F48A8150
:101AB000282F30E0C901880F991F820F931FFC0166
:101AC000E859FF4F40818A81282F30E0C901880FF3
:101AD000991F820F931FFC01E759FF4F9081842FBC
:101AE000692F40E00E941209898332C08A81282F21
:101AF00030E0C901880F991F820F931FFC01E6593E
:101B0000FF4F8081882321F58A81282F30E0C90189
:101B1000880F991F820F931FFC01E859FF4F4081E6
:101B20008A81282F30E0C901880F991F820F931FE7
:101B3000FC01E759FF4F9081842F692F41E00E94FB
:101B40001209898305C083E0898302C082E089830A
:101B500089810F900F90CF91DF910895DF93CF93FC
:101B60000F92CDB7DEB7198219824BC08981282F19
:101B700030E0C901880F991F820F931FFC01E658BE
:101B8000FF4F40818981282F30E0C901880F991FBC
:101B9000820F931FFC01E558FF4F9081842F692F1E
:101BA00040E00E94C40A8981282F30E0C901880FD3
:101BB000991F820F931FFC01E458FF4F80818823F7
:101BC000E9F48981282F30E0C901880F991F820F1D
:101BD000931FFC01E658FF4F40818981282F30E098
:101BE000C901880F991F820F931FFC01E558FF4F11
:101BF0009081842F692F41E00E94120989818F5FB3
:101C000089838981882309F4B1CF0F90CF91DF9127
:101C10000895DF93CF93CDB7DEB760970FB6F894F2
:101C2000DEBF0FBECDBF888B8889282F30E0C90169
:101C3000880F991F820F931FFC01E658FF4F4081C8
:101C40008889282F30E0C901880F991F820F931FC0
:101C5000FC01E558FF4F90819E01215F3F4F842F8B
:101C6000692FA9010E94250A80E090E0A0EFB1E46D
:101C70008B879C87AD87BE876B857C858D859E8590
:101C800020E030E04AEF54E40E941F02DC01CB0167
:101C90008F839887A987BA876F81788589859A8588
:101CA00020E030E040E85FE30E94790388232CF4D1
:101CB00081E090E09E838D833FC06F817885898528
:101CC0009A8520E03FEF4FE757E40E94190318166A
:101CD0004CF56B857C858D859E8520E030E040E26B
:101CE00051E40E941F02DC01CB01BC01CD010E9426
:101CF0004900DC01CB019E838D830FC088EC90E00E
:101D00009C838B838B819C810197F1F79C838B83D0
:101D10008D819E8101979E838D838D819E81009709
:101D200069F714C06F81788589859A850E9449007A
:101D3000DC01CB019E838D838D819E819A83898373
:101D400089819A810197F1F79A8389838889282F5D
:101D500030E0C901880F991F820F931FFC01E658DC
:101D6000FF4F40818889282F30E0C901880F991FD3
:101D7000820F931FFC01E558FF4F90819E01215F68
:101D80003F4F842F692FA9010E94250A8F856096F5
:101D90000FB6F894DEBF0FBECDBFCF91DF9108958F
:101DA000DF93CF930F92CDB7DEB787E08983809121
:101DB0007E00833021F482E08093880019C08091F6
:101DC0007E00882321F481E08093880011C08091F7
:101DD0007E00823019F4109288000AC080917E0043
:101DE000813021F483E08093880002C086E08983FB
:101DF00089810F90CF91DF910895DF93CF9300D029
:101E00000F92CDB7DEB787E0898380917E00282FBF
:101E100030E03B832A838A819B818330910549F19D
:101E20002A813B81243031054CF48A819B810097C3
:101E300021F12A813B813323C4F123C08A819B8114
:101E40008730910531F12A813B812830310534F406
:101E50008A819B8186309105C1F027C02A813B8110
:101E600028303105F1F08A819B8189309105A9F0F4
:101E70001CC087E0809388001AC086E080938800A9
:101E800016C087E08093880012C088E080938800A5
:101E90000EC089E0809388000AC088E080938800A3
:101EA00006C08AE08093880002C086E08983898129
:101EB0000F900F900F90CF91DF910895DF93CF9304
:101EC0000F92CDB7DEB787E0898382E00E94920C43
:101ED00089838981853091F483E00E94920C898303
:101EE0008981853059F481E00E94200D89838981A0
:101EF000853021F484E00E94200D8983898185301A
:101F000019F487E0898302C084E0898389810F9076
:101F1000CF91DF910895DF93CF930F92CDB7DEB7C6
:101F200087E0898380E00E94920C898389818530D3
:101F300091F485E00E94920C89838981853059F45F
:101F400081E00E94200D89838981853021F484E01D
:101F50000E94200D89838981853019F487E0898367
:101F600002C084E0898389810F90CF91DF91089529
:101F7000DF93CF930F92CDB7DEB787E0898382E0FE
:101F80000E94200D898389818530D1F585E00E94EA
:101F9000200D89838981853099F580E00E94200D8C
:101FA00089838981853061F583E00E94200D8983D2
:101FB0008981853029F581E00E94920C898389818D
:101FC0008530F1F484E00E94920C89838981853008
:101FD000B9F460E070E088E493E40E94D70B81E0FC
:101FE0000E94200D89838981853051F484E00E940C
:101FF000200D898360E070E088E493E40E94D70BB1
:102000008981853019F487E0898302C084E089835F
:1020100089810F90CF91DF910895DF93CF930F9235
:10202000CDB7DEB787E0898382E00E94200D8983E7
:1020300089818530D1F585E00E94200D89838981D1
:10204000853099F580E00E94200D89838981853053
:1020500061F583E00E94920C89838981853029F59E
:1020600081E00E94920C898389818530F1F484E0BB
:102070000E94920C898389818530B9F460E070E018
:1020800088E493E40E94D70B81E00E94200D8983AD
:102090008981853051F484E00E94200D898360E0BD
:1020A00070E088E493E40E94D70B8981853019F4AD
:1020B00087E0898302C084E0898389810F90CF9172
:1020C000DF910895DF93CF9300D000D00F92CDB76A
:1020D000DEB787E0898380917D008430B9F58091F7
:1020E0008800282F30E03D832C838C819D818130B6
:1020F000910531F12C813D81223031052CF48C8108
:102100009D81009791F073C02C813D812230310573
:1021100089F08C819D818330910509F068C00E940F
:102120008B0F83E080937E0062C00E945E0F10924E
:102130007E005DC00E94B80F82E080937E0057C091
:102140000E94B80F81E080937E0051C080917D0095
:10215000853009F04AC080918800282F30E03B8309
:102160002A838A819B8188309105C9F12A813B812C
:10217000293031055CF48A819B818630910589F094
:102180002A813B812730310521F131C08A819B8131
:1021900089309105C1F02A813B812A30310539F01F
:1021A00026C00E945E0F86E080937E0020C00E94C1
:1021B0008B0F83E00E94200D83E080937E0084E0FB
:1021C00080937D0014C00E945E0F89E080937E00A2
:1021D0000EC00E94B80F87E080937E0008C00E9466
:1021E0000D1088E080937E0002C084E0898389819D
:1021F0000F900F900F900F900F90CF91DF91089557
:10220000DF93CF93CDB7DEB780917D00843049F462
:1022100085E080937D0010928A00109289000E94D0
:10222000FD0ECF91DF910895DF93CF93CDB7DEB749
:102230008091890090918A00019690938A00809302
:1022400089008091890090918A0023E18838920763
:10225000A9F480917D00843039F410928A001092A4
:1022600089000E94D00E0AC080917D00853031F433
:1022700010928A00109289000E94FD0ECF91DF918A
:102280000895DF93CF9300D0CDB7DEB70E945E0CE8
:102290000E9400068DE70E94310684E191E10E94D0
:1022A0003F060E948F06198281E08A83CE01019643
:1022B0000E94C70620E031E180E0B9010E941A08BF
:1022C0000E94AE0D0E946210FDCF2F923F924F925E
:1022D0005F926F927F928F929F92AF92BF92CF92B6
:1022E000DF92EF92FF920F931F93CF93DF93CDB7BF
:1022F000DEB7CA1BDB0B0FB6F894DEBF0FBECDBF37
:1023000009942A88398848885F846E847D848C8407
:102310009B84AA84B984C884DF80EE80FD800C8110
:102320001B81AA81B981CE0FD11D0FB6F894DEBFF3
:0C2330000FBECDBFED010895F894FFCF63
:10233C00000000000000000000000100010100028C
:10234C00010100010101010102010302000402006C
:00000001FF
